{
  "contractName": "SafeMathMock",
  "abi": [
    {
      "constant": true,
      "inputs": [
        {
          "name": "a",
          "type": "uint256"
        },
        {
          "name": "b",
          "type": "uint256"
        }
      ],
      "name": "mul",
      "outputs": [
        {
          "name": "",
          "type": "uint256"
        }
      ],
      "payable": false,
      "stateMutability": "pure",
      "type": "function"
    },
    {
      "constant": true,
      "inputs": [
        {
          "name": "a",
          "type": "uint256"
        },
        {
          "name": "b",
          "type": "uint256"
        }
      ],
      "name": "div",
      "outputs": [
        {
          "name": "",
          "type": "uint256"
        }
      ],
      "payable": false,
      "stateMutability": "pure",
      "type": "function"
    },
    {
      "constant": true,
      "inputs": [
        {
          "name": "a",
          "type": "uint256"
        },
        {
          "name": "b",
          "type": "uint256"
        }
      ],
      "name": "sub",
      "outputs": [
        {
          "name": "",
          "type": "uint256"
        }
      ],
      "payable": false,
      "stateMutability": "pure",
      "type": "function"
    },
    {
      "constant": true,
      "inputs": [
        {
          "name": "a",
          "type": "uint256"
        },
        {
          "name": "b",
          "type": "uint256"
        }
      ],
      "name": "add",
      "outputs": [
        {
          "name": "",
          "type": "uint256"
        }
      ],
      "payable": false,
      "stateMutability": "pure",
      "type": "function"
    }
  ],
  "bytecode": "0x608060405234801561001057600080fd5b5061029c806100206000396000f300608060405260043610610062576000357c0100000000000000000000000000000000000000000000000000000000900463ffffffff168063771602f714610067578063a391c15b146100b2578063b67d77c5146100fd578063c8a4ac9c14610148575b600080fd5b34801561007357600080fd5b5061009c6004803603810190808035906020019092919080359060200190929190505050610193565b6040518082815260200191505060405180910390f35b3480156100be57600080fd5b506100e760048036038101908080359060200190929190803590602001909291905050506101a7565b6040518082815260200191505060405180910390f35b34801561010957600080fd5b5061013260048036038101908080359060200190929190803590602001909291905050506101bb565b6040518082815260200191505060405180910390f35b34801561015457600080fd5b5061017d60048036038101908080359060200190929190803590602001909291905050506101cf565b6040518082815260200191505060405180910390f35b600061019f83836101e3565b905092915050565b60006101b38383610201565b905092915050565b60006101c7838361021c565b905092915050565b60006101db8383610235565b905092915050565b60008082840190508381101515156101f757fe5b8091505092915050565b600080828481151561020f57fe5b0490508091505092915050565b600082821115151561022a57fe5b818303905092915050565b600080600084141561024a5760009150610269565b828402905082848281151561025b57fe5b0414151561026557fe5b8091505b50929150505600a165627a7a7230582012907ac7b706dfae370842ed844dced73671de220aab7b754f145273dbe7d16a0029",
  "source": "pragma solidity ^0.4.23;\n\nimport \"../libs/SafeMath.sol\";\n\ncontract SafeMathMock {\n\n  function mul(uint256 a, uint256 b) public pure returns (uint256) {\n    return SafeMath.mul(a, b);\n  }\n\n  function div(uint256 a, uint256 b) public pure returns (uint256) {\n    return SafeMath.div(a, b);\n  }\n\n  function sub(uint256 a, uint256 b) public pure returns (uint256) {\n    return SafeMath.sub(a, b);\n  }\n\n  function add(uint256 a, uint256 b) public pure returns (uint256) {\n    return SafeMath.add(a, b);\n  }\n}\n",
  "sourcePath": "/Volumes/work/git/armors/tron/demo/contracts/mocks/SafeMathMock.sol",
  "compiler": {
    "name": "solc",
    "version": "0.4.24-develop.2018.8.28+commit.3ba0cdec.mod.Emscripten.clang"
  },
  "schemaVersion": "2.0.1",
  "updatedAt": "2019-01-14T02:55:57.113Z"
}